{
  "_format": "hh-sol-artifact-1",
  "contractName": "PHDTokenV1",
  "sourceName": "contracts/v1/PHDTokenV1.sol",
  "abi": [
    {
      "anonymous": false,
      "inputs": [
        {
          "indexed": true,
          "internalType": "address",
          "name": "owner",
          "type": "address"
        },
        {
          "indexed": true,
          "internalType": "address",
          "name": "spender",
          "type": "address"
        },
        {
          "indexed": false,
          "internalType": "uint256",
          "name": "value",
          "type": "uint256"
        }
      ],
      "name": "Approval",
      "type": "event"
    },
    {
      "anonymous": false,
      "inputs": [
        {
          "indexed": true,
          "internalType": "address",
          "name": "_account",
          "type": "address"
        }
      ],
      "name": "Blacklisted",
      "type": "event"
    },
    {
      "anonymous": false,
      "inputs": [
        {
          "indexed": true,
          "internalType": "address",
          "name": "newBlacklister",
          "type": "address"
        }
      ],
      "name": "BlacklisterChanged",
      "type": "event"
    },
    {
      "anonymous": false,
      "inputs": [
        {
          "indexed": true,
          "internalType": "address",
          "name": "burner",
          "type": "address"
        },
        {
          "indexed": false,
          "internalType": "uint256",
          "name": "amount",
          "type": "uint256"
        }
      ],
      "name": "Burn",
      "type": "event"
    },
    {
      "anonymous": false,
      "inputs": [
        {
          "indexed": false,
          "internalType": "uint8",
          "name": "version",
          "type": "uint8"
        }
      ],
      "name": "Initialized",
      "type": "event"
    },
    {
      "anonymous": false,
      "inputs": [
        {
          "indexed": true,
          "internalType": "address",
          "name": "newMasterMinter",
          "type": "address"
        }
      ],
      "name": "MasterMinterChanged",
      "type": "event"
    },
    {
      "anonymous": false,
      "inputs": [
        {
          "indexed": true,
          "internalType": "address",
          "name": "minter",
          "type": "address"
        },
        {
          "indexed": true,
          "internalType": "address",
          "name": "to",
          "type": "address"
        },
        {
          "indexed": false,
          "internalType": "uint256",
          "name": "amount",
          "type": "uint256"
        }
      ],
      "name": "Mint",
      "type": "event"
    },
    {
      "anonymous": false,
      "inputs": [
        {
          "indexed": true,
          "internalType": "address",
          "name": "minter",
          "type": "address"
        },
        {
          "indexed": false,
          "internalType": "uint256",
          "name": "minterAllowedAmount",
          "type": "uint256"
        }
      ],
      "name": "MinterConfigured",
      "type": "event"
    },
    {
      "anonymous": false,
      "inputs": [
        {
          "indexed": true,
          "internalType": "address",
          "name": "oldMinter",
          "type": "address"
        }
      ],
      "name": "MinterRemoved",
      "type": "event"
    },
    {
      "anonymous": false,
      "inputs": [
        {
          "indexed": true,
          "internalType": "address",
          "name": "previousOwner",
          "type": "address"
        },
        {
          "indexed": true,
          "internalType": "address",
          "name": "newOwner",
          "type": "address"
        }
      ],
      "name": "OwnershipTransferred",
      "type": "event"
    },
    {
      "anonymous": false,
      "inputs": [],
      "name": "Pause",
      "type": "event"
    },
    {
      "anonymous": false,
      "inputs": [
        {
          "indexed": true,
          "internalType": "address",
          "name": "newAddress",
          "type": "address"
        }
      ],
      "name": "PauserChanged",
      "type": "event"
    },
    {
      "anonymous": false,
      "inputs": [
        {
          "indexed": true,
          "internalType": "address",
          "name": "from",
          "type": "address"
        },
        {
          "indexed": true,
          "internalType": "address",
          "name": "to",
          "type": "address"
        },
        {
          "indexed": false,
          "internalType": "uint256",
          "name": "value",
          "type": "uint256"
        }
      ],
      "name": "Transfer",
      "type": "event"
    },
    {
      "anonymous": false,
      "inputs": [
        {
          "indexed": true,
          "internalType": "address",
          "name": "_account",
          "type": "address"
        }
      ],
      "name": "UnBlacklisted",
      "type": "event"
    },
    {
      "anonymous": false,
      "inputs": [],
      "name": "Unpause",
      "type": "event"
    },
    {
      "inputs": [
        {
          "internalType": "address",
          "name": "owner",
          "type": "address"
        },
        {
          "internalType": "address",
          "name": "spender",
          "type": "address"
        }
      ],
      "name": "allowance",
      "outputs": [
        {
          "internalType": "uint256",
          "name": "",
          "type": "uint256"
        }
      ],
      "stateMutability": "view",
      "type": "function"
    },
    {
      "inputs": [
        {
          "internalType": "address",
          "name": "spender",
          "type": "address"
        },
        {
          "internalType": "uint256",
          "name": "value",
          "type": "uint256"
        }
      ],
      "name": "approve",
      "outputs": [
        {
          "internalType": "bool",
          "name": "",
          "type": "bool"
        }
      ],
      "stateMutability": "nonpayable",
      "type": "function"
    },
    {
      "inputs": [
        {
          "internalType": "address",
          "name": "account",
          "type": "address"
        }
      ],
      "name": "balanceOf",
      "outputs": [
        {
          "internalType": "uint256",
          "name": "",
          "type": "uint256"
        }
      ],
      "stateMutability": "view",
      "type": "function"
    },
    {
      "inputs": [
        {
          "internalType": "address",
          "name": "_account",
          "type": "address"
        }
      ],
      "name": "blacklist",
      "outputs": [],
      "stateMutability": "nonpayable",
      "type": "function"
    },
    {
      "inputs": [],
      "name": "blacklister",
      "outputs": [
        {
          "internalType": "address",
          "name": "",
          "type": "address"
        }
      ],
      "stateMutability": "view",
      "type": "function"
    },
    {
      "inputs": [
        {
          "internalType": "uint256",
          "name": "_amount",
          "type": "uint256"
        }
      ],
      "name": "burn",
      "outputs": [],
      "stateMutability": "nonpayable",
      "type": "function"
    },
    {
      "inputs": [
        {
          "internalType": "address",
          "name": "minter",
          "type": "address"
        },
        {
          "internalType": "uint256",
          "name": "minterAllowedAmount",
          "type": "uint256"
        }
      ],
      "name": "configureMinter",
      "outputs": [
        {
          "internalType": "bool",
          "name": "",
          "type": "bool"
        }
      ],
      "stateMutability": "nonpayable",
      "type": "function"
    },
    {
      "inputs": [],
      "name": "currency",
      "outputs": [
        {
          "internalType": "string",
          "name": "",
          "type": "string"
        }
      ],
      "stateMutability": "view",
      "type": "function"
    },
    {
      "inputs": [],
      "name": "decimals",
      "outputs": [
        {
          "internalType": "uint8",
          "name": "",
          "type": "uint8"
        }
      ],
      "stateMutability": "view",
      "type": "function"
    },
    {
      "inputs": [
        {
          "internalType": "address",
          "name": "spender",
          "type": "address"
        },
        {
          "internalType": "uint256",
          "name": "subtractedValue",
          "type": "uint256"
        }
      ],
      "name": "decreaseAllowance",
      "outputs": [
        {
          "internalType": "bool",
          "name": "",
          "type": "bool"
        }
      ],
      "stateMutability": "nonpayable",
      "type": "function"
    },
    {
      "inputs": [
        {
          "internalType": "address",
          "name": "spender",
          "type": "address"
        },
        {
          "internalType": "uint256",
          "name": "addedValue",
          "type": "uint256"
        }
      ],
      "name": "increaseAllowance",
      "outputs": [
        {
          "internalType": "bool",
          "name": "",
          "type": "bool"
        }
      ],
      "stateMutability": "nonpayable",
      "type": "function"
    },
    {
      "inputs": [
        {
          "internalType": "string",
          "name": "tokenName",
          "type": "string"
        },
        {
          "internalType": "string",
          "name": "tokenSymbol",
          "type": "string"
        },
        {
          "internalType": "string",
          "name": "tokenCurrency",
          "type": "string"
        },
        {
          "internalType": "uint8",
          "name": "tokenDecimals",
          "type": "uint8"
        },
        {
          "internalType": "address",
          "name": "newMasterMinter",
          "type": "address"
        },
        {
          "internalType": "address",
          "name": "newPauser",
          "type": "address"
        },
        {
          "internalType": "address",
          "name": "newBlacklister",
          "type": "address"
        },
        {
          "internalType": "address",
          "name": "newOwner",
          "type": "address"
        },
        {
          "internalType": "uint256",
          "name": "tokenSupply",
          "type": "uint256"
        }
      ],
      "name": "initialize",
      "outputs": [],
      "stateMutability": "nonpayable",
      "type": "function"
    },
    {
      "inputs": [
        {
          "internalType": "address",
          "name": "_account",
          "type": "address"
        }
      ],
      "name": "isBlacklisted",
      "outputs": [
        {
          "internalType": "bool",
          "name": "",
          "type": "bool"
        }
      ],
      "stateMutability": "view",
      "type": "function"
    },
    {
      "inputs": [
        {
          "internalType": "address",
          "name": "account",
          "type": "address"
        }
      ],
      "name": "isMinter",
      "outputs": [
        {
          "internalType": "bool",
          "name": "",
          "type": "bool"
        }
      ],
      "stateMutability": "view",
      "type": "function"
    },
    {
      "inputs": [],
      "name": "masterMinter",
      "outputs": [
        {
          "internalType": "address",
          "name": "",
          "type": "address"
        }
      ],
      "stateMutability": "view",
      "type": "function"
    },
    {
      "inputs": [
        {
          "internalType": "address",
          "name": "_to",
          "type": "address"
        },
        {
          "internalType": "uint256",
          "name": "_amount",
          "type": "uint256"
        }
      ],
      "name": "mint",
      "outputs": [
        {
          "internalType": "bool",
          "name": "",
          "type": "bool"
        }
      ],
      "stateMutability": "nonpayable",
      "type": "function"
    },
    {
      "inputs": [
        {
          "internalType": "address",
          "name": "minter",
          "type": "address"
        }
      ],
      "name": "minterAllowance",
      "outputs": [
        {
          "internalType": "uint256",
          "name": "",
          "type": "uint256"
        }
      ],
      "stateMutability": "view",
      "type": "function"
    },
    {
      "inputs": [],
      "name": "name",
      "outputs": [
        {
          "internalType": "string",
          "name": "",
          "type": "string"
        }
      ],
      "stateMutability": "view",
      "type": "function"
    },
    {
      "inputs": [],
      "name": "owner",
      "outputs": [
        {
          "internalType": "address",
          "name": "",
          "type": "address"
        }
      ],
      "stateMutability": "view",
      "type": "function"
    },
    {
      "inputs": [],
      "name": "pause",
      "outputs": [],
      "stateMutability": "nonpayable",
      "type": "function"
    },
    {
      "inputs": [],
      "name": "paused",
      "outputs": [
        {
          "internalType": "bool",
          "name": "",
          "type": "bool"
        }
      ],
      "stateMutability": "view",
      "type": "function"
    },
    {
      "inputs": [],
      "name": "pauser",
      "outputs": [
        {
          "internalType": "address",
          "name": "",
          "type": "address"
        }
      ],
      "stateMutability": "view",
      "type": "function"
    },
    {
      "inputs": [
        {
          "internalType": "address",
          "name": "minter",
          "type": "address"
        }
      ],
      "name": "removeMinter",
      "outputs": [
        {
          "internalType": "bool",
          "name": "",
          "type": "bool"
        }
      ],
      "stateMutability": "nonpayable",
      "type": "function"
    },
    {
      "inputs": [],
      "name": "renounceOwnership",
      "outputs": [],
      "stateMutability": "nonpayable",
      "type": "function"
    },
    {
      "inputs": [],
      "name": "symbol",
      "outputs": [
        {
          "internalType": "string",
          "name": "",
          "type": "string"
        }
      ],
      "stateMutability": "view",
      "type": "function"
    },
    {
      "inputs": [],
      "name": "totalSupply",
      "outputs": [
        {
          "internalType": "uint256",
          "name": "",
          "type": "uint256"
        }
      ],
      "stateMutability": "view",
      "type": "function"
    },
    {
      "inputs": [
        {
          "internalType": "address",
          "name": "to",
          "type": "address"
        },
        {
          "internalType": "uint256",
          "name": "value",
          "type": "uint256"
        }
      ],
      "name": "transfer",
      "outputs": [
        {
          "internalType": "bool",
          "name": "",
          "type": "bool"
        }
      ],
      "stateMutability": "nonpayable",
      "type": "function"
    },
    {
      "inputs": [
        {
          "internalType": "address",
          "name": "from",
          "type": "address"
        },
        {
          "internalType": "address",
          "name": "to",
          "type": "address"
        },
        {
          "internalType": "uint256",
          "name": "value",
          "type": "uint256"
        }
      ],
      "name": "transferFrom",
      "outputs": [
        {
          "internalType": "bool",
          "name": "",
          "type": "bool"
        }
      ],
      "stateMutability": "nonpayable",
      "type": "function"
    },
    {
      "inputs": [
        {
          "internalType": "address",
          "name": "newOwner",
          "type": "address"
        }
      ],
      "name": "transferOwnership",
      "outputs": [],
      "stateMutability": "nonpayable",
      "type": "function"
    },
    {
      "inputs": [
        {
          "internalType": "address",
          "name": "_account",
          "type": "address"
        }
      ],
      "name": "unBlacklist",
      "outputs": [],
      "stateMutability": "nonpayable",
      "type": "function"
    },
    {
      "inputs": [],
      "name": "unpause",
      "outputs": [],
      "stateMutability": "nonpayable",
      "type": "function"
    },
    {
      "inputs": [
        {
          "internalType": "address",
          "name": "_newBlacklister",
          "type": "address"
        }
      ],
      "name": "updateBlacklister",
      "outputs": [],
      "stateMutability": "nonpayable",
      "type": "function"
    },
    {
      "inputs": [
        {
          "internalType": "address",
          "name": "_newMasterMinter",
          "type": "address"
        }
      ],
      "name": "updateMasterMinter",
      "outputs": [],
      "stateMutability": "nonpayable",
      "type": "function"
    },
    {
      "inputs": [
        {
          "internalType": "address",
          "name": "_newPauser",
          "type": "address"
        }
      ],
      "name": "updatePauser",
      "outputs": [],
      "stateMutability": "nonpayable",
      "type": "function"
    }
  ],
  "bytecode": "0x608060405234801561001057600080fd5b50614715806100206000396000f3fe608060405234801561001057600080fd5b50600436106102065760003560e01c8063715018a61161011a578063aa20e1e4116100ad578063dd62ed3e1161007c578063dd62ed3e146105ef578063e5a6b10f1461061f578063f2fde38b1461063d578063f9f92be414610659578063fe575a871461067557610206565b8063aa20e1e414610569578063aa271e1a14610585578063ad38bf22146105b5578063bd102430146105d157610206565b806395d89b41116100e957806395d89b41146104cd5780639fd0506d146104eb578063a457c2d714610509578063a9059cbb1461053957610206565b8063715018a61461046b5780638456cb59146104755780638a6db9c31461047f5780638da5cb5b146104af57610206565b806335d99f351161019d57806342966c681161016c57806342966c68146103b55780634e44d956146103d1578063554bab3c146104015780635c975abb1461041d57806370a082311461043b57610206565b806335d99f351461032d578063395093511461034b5780633f4ba83a1461037b57806340c10f191461038557610206565b806323b872dd116101d957806323b872dd146102935780632766ba58146102c35780633092afd5146102df578063313ce5671461030f57610206565b806306fdde031461020b578063095ea7b31461022957806318160ddd146102595780631a89526614610277575b600080fd5b6102136106a5565b6040516102209190612ef7565b60405180910390f35b610243600480360381019061023e9190612fc1565b610733565b604051610250919061301c565b60405180910390f35b6102616108b8565b60405161026e9190613046565b60405180910390f35b610291600480360381019061028c9190613061565b6108c2565b005b6102ad60048036038101906102a8919061308e565b6109f0565b6040516102ba919061301c565b60405180910390f35b6102dd60048036038101906102d8919061324f565b610d57565b005b6102f960048036038101906102f49190613061565b6110c2565b604051610306919061301c565b60405180910390f35b61031761123d565b604051610324919061337c565b60405180910390f35b610335611250565b60405161034291906133a6565b60405180910390f35b61036560048036038101906103609190612fc1565b611276565b604051610372919061301c565b60405180910390f35b6103836112a1565b005b61039f600480360381019061039a9190612fc1565b61137a565b6040516103ac919061301c565b60405180910390f35b6103cf60048036038101906103ca91906133c1565b61184a565b005b6103eb60048036038101906103e69190612fc1565b611ba6565b6040516103f8919061301c565b60405180910390f35b61041b60048036038101906104169190613061565b611d7c565b005b610425611e9c565b604051610432919061301c565b60405180910390f35b61045560048036038101906104509190613061565b611eaf565b6040516104629190613046565b60405180910390f35b610473611ef8565b005b61047d611f0c565b005b61049960048036038101906104949190613061565b611fe5565b6040516104a69190613046565b60405180910390f35b6104b761202e565b6040516104c491906133a6565b60405180910390f35b6104d5612058565b6040516104e29190612ef7565b60405180910390f35b6104f36120e6565b60405161050091906133a6565b60405180910390f35b610523600480360381019061051e9190612fc1565b61210c565b604051610530919061301c565b60405180910390f35b610553600480360381019061054e9190612fc1565b612176565b604051610560919061301c565b60405180910390f35b610583600480360381019061057e9190613061565b6122fb565b005b61059f600480360381019061059a9190613061565b61241b565b6040516105ac919061301c565b60405180910390f35b6105cf60048036038101906105ca9190613061565b612471565b005b6105d9612591565b6040516105e691906133a6565b60405180910390f35b610609600480360381019061060491906133ee565b6125b7565b6040516106169190613046565b60405180910390f35b61062761263e565b6040516106349190612ef7565b60405180910390f35b61065760048036038101906106529190613061565b6126cc565b005b610673600480360381019061066e9190613061565b61274f565b005b61068f600480360381019061068a9190613061565b61287d565b60405161069c919061301c565b60405180910390f35b606880546106b29061345d565b80601f01602080910402602001604051908101604052809291908181526020018280546106de9061345d565b801561072b5780601f106107005761010080835404028352916020019161072b565b820191906000526020600020905b81548152906001019060200180831161070e57829003601f168201915b505050505081565b6000606560149054906101000a900460ff1615610785576040517f08c379a000000000000000000000000000000000000000000000000000000000815260040161077c906134da565b60405180910390fd5b33606760008273ffffffffffffffffffffffffffffffffffffffff1673ffffffffffffffffffffffffffffffffffffffff16815260200190815260200160002060009054906101000a900460ff1615610813576040517f08c379a000000000000000000000000000000000000000000000000000000000815260040161080a9061356c565b60405180910390fd5b83606760008273ffffffffffffffffffffffffffffffffffffffff1673ffffffffffffffffffffffffffffffffffffffff16815260200190815260200160002060009054906101000a900460ff16156108a1576040517f08c379a00000000000000000000000000000000000000000000000000000000081526004016108989061356c565b60405180910390fd5b6108ac3386866128d3565b60019250505092915050565b6000606d54905090565b606660009054906101000a900473ffffffffffffffffffffffffffffffffffffffff1673ffffffffffffffffffffffffffffffffffffffff163373ffffffffffffffffffffffffffffffffffffffff1614610952576040517f08c379a0000000000000000000000000000000000000000000000000000000008152600401610949906135fe565b60405180910390fd5b6000606760008373ffffffffffffffffffffffffffffffffffffffff1673ffffffffffffffffffffffffffffffffffffffff16815260200190815260200160002060006101000a81548160ff0219169083151502179055508073ffffffffffffffffffffffffffffffffffffffff167f117e3210bb9aa7d9baff172026820255c6f6c30ba8999d1c2fd88e2848137c4e60405160405180910390a250565b6000606560149054906101000a900460ff1615610a42576040517f08c379a0000000000000000000000000000000000000000000000000000000008152600401610a39906134da565b60405180910390fd5b33606760008273ffffffffffffffffffffffffffffffffffffffff1673ffffffffffffffffffffffffffffffffffffffff16815260200190815260200160002060009054906101000a900460ff1615610ad0576040517f08c379a0000000000000000000000000000000000000000000000000000000008152600401610ac79061356c565b60405180910390fd5b84606760008273ffffffffffffffffffffffffffffffffffffffff1673ffffffffffffffffffffffffffffffffffffffff16815260200190815260200160002060009054906101000a900460ff1615610b5e576040517f08c379a0000000000000000000000000000000000000000000000000000000008152600401610b559061356c565b60405180910390fd5b84606760008273ffffffffffffffffffffffffffffffffffffffff1673ffffffffffffffffffffffffffffffffffffffff16815260200190815260200160002060009054906101000a900460ff1615610bec576040517f08c379a0000000000000000000000000000000000000000000000000000000008152600401610be39061356c565b60405180910390fd5b606f60008873ffffffffffffffffffffffffffffffffffffffff1673ffffffffffffffffffffffffffffffffffffffff16815260200190815260200160002060003373ffffffffffffffffffffffffffffffffffffffff1673ffffffffffffffffffffffffffffffffffffffff16815260200190815260200160002054851115610cab576040517f08c379a0000000000000000000000000000000000000000000000000000000008152600401610ca290613690565b60405180910390fd5b610cb6878787612a9c565b84606f60008973ffffffffffffffffffffffffffffffffffffffff1673ffffffffffffffffffffffffffffffffffffffff16815260200190815260200160002060003373ffffffffffffffffffffffffffffffffffffffff1673ffffffffffffffffffffffffffffffffffffffff1681526020019081526020016000206000828254610d4291906136df565b92505081905550600193505050509392505050565b606c60149054906101000a900460ff1615610da7576040517f08c379a0000000000000000000000000000000000000000000000000000000008152600401610d9e90613785565b60405180910390fd5b600073ffffffffffffffffffffffffffffffffffffffff168573ffffffffffffffffffffffffffffffffffffffff1603610e16576040517f08c379a0000000000000000000000000000000000000000000000000000000008152600401610e0d90613817565b60405180910390fd5b600073ffffffffffffffffffffffffffffffffffffffff168473ffffffffffffffffffffffffffffffffffffffff1603610e85576040517f08c379a0000000000000000000000000000000000000000000000000000000008152600401610e7c906138a9565b60405180910390fd5b600073ffffffffffffffffffffffffffffffffffffffff168373ffffffffffffffffffffffffffffffffffffffff1603610ef4576040517f08c379a0000000000000000000000000000000000000000000000000000000008152600401610eeb9061393b565b60405180910390fd5b600073ffffffffffffffffffffffffffffffffffffffff168273ffffffffffffffffffffffffffffffffffffffff1603610f63576040517f08c379a0000000000000000000000000000000000000000000000000000000008152600401610f5a906139cd565b60405180910390fd5b8860689081610f729190613b99565b508760699081610f829190613b99565b5086606b9081610f929190613b99565b5085606a60006101000a81548160ff021916908360ff16021790555084606c60006101000a81548173ffffffffffffffffffffffffffffffffffffffff021916908373ffffffffffffffffffffffffffffffffffffffff16021790555083606560006101000a81548173ffffffffffffffffffffffffffffffffffffffff021916908373ffffffffffffffffffffffffffffffffffffffff16021790555082606660006101000a81548173ffffffffffffffffffffffffffffffffffffffff021916908373ffffffffffffffffffffffffffffffffffffffff16021790555061107a82612d12565b6000606560146101000a81548160ff02191690831515021790555080606d819055506001606c60146101000a81548160ff021916908315150217905550505050505050505050565b6000606c60009054906101000a900473ffffffffffffffffffffffffffffffffffffffff1673ffffffffffffffffffffffffffffffffffffffff163373ffffffffffffffffffffffffffffffffffffffff1614611154576040517f08c379a000000000000000000000000000000000000000000000000000000000815260040161114b90613cdd565b60405180910390fd5b6000607060008473ffffffffffffffffffffffffffffffffffffffff1673ffffffffffffffffffffffffffffffffffffffff16815260200190815260200160002060006101000a81548160ff0219169083151502179055506000607160008473ffffffffffffffffffffffffffffffffffffffff1673ffffffffffffffffffffffffffffffffffffffff168152602001908152602001600020819055508173ffffffffffffffffffffffffffffffffffffffff167fe94479a9f7e1952cc78f2d6baab678adc1b772d936c6583def489e524cb6669260405160405180910390a260019050919050565b606a60009054906101000a900460ff1681565b606c60009054906101000a900473ffffffffffffffffffffffffffffffffffffffff1681565b600061129733848461128833886125b7565b6112929190613cfd565b6128d3565b6001905092915050565b606560009054906101000a900473ffffffffffffffffffffffffffffffffffffffff1673ffffffffffffffffffffffffffffffffffffffff163373ffffffffffffffffffffffffffffffffffffffff1614611331576040517f08c379a000000000000000000000000000000000000000000000000000000000815260040161132890613dc5565b60405180910390fd5b6000606560146101000a81548160ff0219169083151502179055507f7805862f689e2f13df9f062ff482ad3ad112aca9e0847911ed832e158c525b3360405160405180910390a1565b6000606560149054906101000a900460ff16156113cc576040517f08c379a00000000000000000000000000000000000000000000000000000000081526004016113c3906134da565b60405180910390fd5b607060003373ffffffffffffffffffffffffffffffffffffffff1673ffffffffffffffffffffffffffffffffffffffff16815260200190815260200160002060009054906101000a900460ff16611458576040517f08c379a000000000000000000000000000000000000000000000000000000000815260040161144f90613e57565b60405180910390fd5b33606760008273ffffffffffffffffffffffffffffffffffffffff1673ffffffffffffffffffffffffffffffffffffffff16815260200190815260200160002060009054906101000a900460ff16156114e6576040517f08c379a00000000000000000000000000000000000000000000000000000000081526004016114dd9061356c565b60405180910390fd5b83606760008273ffffffffffffffffffffffffffffffffffffffff1673ffffffffffffffffffffffffffffffffffffffff16815260200190815260200160002060009054906101000a900460ff1615611574576040517f08c379a000000000000000000000000000000000000000000000000000000000815260040161156b9061356c565b60405180910390fd5b600073ffffffffffffffffffffffffffffffffffffffff168573ffffffffffffffffffffffffffffffffffffffff16036115e3576040517f08c379a00000000000000000000000000000000000000000000000000000000081526004016115da90613ee9565b60405180910390fd5b60008411611626576040517f08c379a000000000000000000000000000000000000000000000000000000000815260040161161d90613f7b565b60405180910390fd5b6000607160003373ffffffffffffffffffffffffffffffffffffffff1673ffffffffffffffffffffffffffffffffffffffff168152602001908152602001600020549050808511156116ad576040517f08c379a00000000000000000000000000000000000000000000000000000000081526004016116a49061400d565b60405180910390fd5b84606d60008282546116bf9190613cfd565b9250508190555084606e60008873ffffffffffffffffffffffffffffffffffffffff1673ffffffffffffffffffffffffffffffffffffffff16815260200190815260200160002060008282546117159190613cfd565b9250508190555084607160003373ffffffffffffffffffffffffffffffffffffffff1673ffffffffffffffffffffffffffffffffffffffff168152602001908152602001600020600082825461176b91906136df565b925050819055508573ffffffffffffffffffffffffffffffffffffffff163373ffffffffffffffffffffffffffffffffffffffff167fab8530f87dc9b59234c4623bf917212bb2536d647574c8e7e5da92c2ede0c9f8876040516117cf9190613046565b60405180910390a38573ffffffffffffffffffffffffffffffffffffffff16600073ffffffffffffffffffffffffffffffffffffffff167fddf252ad1be2c89b69c2b068fc378daa952ba7f163c4a11628f55a4df523b3ef876040516118359190613046565b60405180910390a36001935050505092915050565b606560149054906101000a900460ff161561189a576040517f08c379a0000000000000000000000000000000000000000000000000000000008152600401611891906134da565b60405180910390fd5b607060003373ffffffffffffffffffffffffffffffffffffffff1673ffffffffffffffffffffffffffffffffffffffff16815260200190815260200160002060009054906101000a900460ff16611926576040517f08c379a000000000000000000000000000000000000000000000000000000000815260040161191d90613e57565b60405180910390fd5b33606760008273ffffffffffffffffffffffffffffffffffffffff1673ffffffffffffffffffffffffffffffffffffffff16815260200190815260200160002060009054906101000a900460ff16156119b4576040517f08c379a00000000000000000000000000000000000000000000000000000000081526004016119ab9061356c565b60405180910390fd5b6000606e60003373ffffffffffffffffffffffffffffffffffffffff1673ffffffffffffffffffffffffffffffffffffffff16815260200190815260200160002054905060008311611a3b576040517f08c379a0000000000000000000000000000000000000000000000000000000008152600401611a329061409f565b60405180910390fd5b82811015611a7e576040517f08c379a0000000000000000000000000000000000000000000000000000000008152600401611a7590614131565b60405180910390fd5b82606d6000828254611a9091906136df565b9250508190555082606e60003373ffffffffffffffffffffffffffffffffffffffff1673ffffffffffffffffffffffffffffffffffffffff1681526020019081526020016000206000828254611ae691906136df565b925050819055503373ffffffffffffffffffffffffffffffffffffffff167fcc16f5dbb4873280815c1ee09dbd06736cffcc184412cf7a71a0fdb75d397ca584604051611b339190613046565b60405180910390a2600073ffffffffffffffffffffffffffffffffffffffff163373ffffffffffffffffffffffffffffffffffffffff167fddf252ad1be2c89b69c2b068fc378daa952ba7f163c4a11628f55a4df523b3ef85604051611b999190613046565b60405180910390a3505050565b6000606560149054906101000a900460ff1615611bf8576040517f08c379a0000000000000000000000000000000000000000000000000000000008152600401611bef906134da565b60405180910390fd5b606c60009054906101000a900473ffffffffffffffffffffffffffffffffffffffff1673ffffffffffffffffffffffffffffffffffffffff163373ffffffffffffffffffffffffffffffffffffffff1614611c88576040517f08c379a0000000000000000000000000000000000000000000000000000000008152600401611c7f90613cdd565b60405180910390fd5b6001607060008573ffffffffffffffffffffffffffffffffffffffff1673ffffffffffffffffffffffffffffffffffffffff16815260200190815260200160002060006101000a81548160ff02191690831515021790555081607160008573ffffffffffffffffffffffffffffffffffffffff1673ffffffffffffffffffffffffffffffffffffffff168152602001908152602001600020819055508273ffffffffffffffffffffffffffffffffffffffff167f46980fca912ef9bcdbd36877427b6b90e860769f604e89c0e67720cece530d2083604051611d6a9190613046565b60405180910390a26001905092915050565b611d84612dd8565b600073ffffffffffffffffffffffffffffffffffffffff168173ffffffffffffffffffffffffffffffffffffffff1603611df3576040517f08c379a0000000000000000000000000000000000000000000000000000000008152600401611dea906141c3565b60405180910390fd5b80606560006101000a81548173ffffffffffffffffffffffffffffffffffffffff021916908373ffffffffffffffffffffffffffffffffffffffff160217905550606560009054906101000a900473ffffffffffffffffffffffffffffffffffffffff1673ffffffffffffffffffffffffffffffffffffffff167fb80482a293ca2e013eda8683c9bd7fc8347cfdaeea5ede58cba46df502c2a60460405160405180910390a250565b606560149054906101000a900460ff1681565b6000606e60008373ffffffffffffffffffffffffffffffffffffffff1673ffffffffffffffffffffffffffffffffffffffff168152602001908152602001600020549050919050565b611f00612dd8565b611f0a6000612d12565b565b606560009054906101000a900473ffffffffffffffffffffffffffffffffffffffff1673ffffffffffffffffffffffffffffffffffffffff163373ffffffffffffffffffffffffffffffffffffffff1614611f9c576040517f08c379a0000000000000000000000000000000000000000000000000000000008152600401611f9390613dc5565b60405180910390fd5b6001606560146101000a81548160ff0219169083151502179055507f6985a02210a168e66602d3235cb6db0e70f92b3ba4d376a33c0f3d9434bff62560405160405180910390a1565b6000607160008373ffffffffffffffffffffffffffffffffffffffff1673ffffffffffffffffffffffffffffffffffffffff168152602001908152602001600020549050919050565b6000603360009054906101000a900473ffffffffffffffffffffffffffffffffffffffff16905090565b606980546120659061345d565b80601f01602080910402602001604051908101604052809291908181526020018280546120919061345d565b80156120de5780601f106120b3576101008083540402835291602001916120de565b820191906000526020600020905b8154815290600101906020018083116120c157829003601f168201915b505050505081565b606560009054906101000a900473ffffffffffffffffffffffffffffffffffffffff1681565b60008061211933856125b7565b90508281101561215e576040517f08c379a000000000000000000000000000000000000000000000000000000000815260040161215590614255565b60405180910390fd5b61216b33858584036128d3565b600191505092915050565b6000606560149054906101000a900460ff16156121c8576040517f08c379a00000000000000000000000000000000000000000000000000000000081526004016121bf906134da565b60405180910390fd5b33606760008273ffffffffffffffffffffffffffffffffffffffff1673ffffffffffffffffffffffffffffffffffffffff16815260200190815260200160002060009054906101000a900460ff1615612256576040517f08c379a000000000000000000000000000000000000000000000000000000000815260040161224d9061356c565b60405180910390fd5b83606760008273ffffffffffffffffffffffffffffffffffffffff1673ffffffffffffffffffffffffffffffffffffffff16815260200190815260200160002060009054906101000a900460ff16156122e4576040517f08c379a00000000000000000000000000000000000000000000000000000000081526004016122db9061356c565b60405180910390fd5b6122ef338686612a9c565b60019250505092915050565b612303612dd8565b600073ffffffffffffffffffffffffffffffffffffffff168173ffffffffffffffffffffffffffffffffffffffff1603612372576040517f08c379a000000000000000000000000000000000000000000000000000000000815260040161236990613817565b60405180910390fd5b80606c60006101000a81548173ffffffffffffffffffffffffffffffffffffffff021916908373ffffffffffffffffffffffffffffffffffffffff160217905550606c60009054906101000a900473ffffffffffffffffffffffffffffffffffffffff1673ffffffffffffffffffffffffffffffffffffffff167fdb66dfa9c6b8f5226fe9aac7e51897ae8ee94ac31dc70bb6c9900b2574b707e660405160405180910390a250565b6000607060008373ffffffffffffffffffffffffffffffffffffffff1673ffffffffffffffffffffffffffffffffffffffff16815260200190815260200160002060009054906101000a900460ff169050919050565b612479612dd8565b600073ffffffffffffffffffffffffffffffffffffffff168173ffffffffffffffffffffffffffffffffffffffff16036124e8576040517f08c379a00000000000000000000000000000000000000000000000000000000081526004016124df906142e7565b60405180910390fd5b80606660006101000a81548173ffffffffffffffffffffffffffffffffffffffff021916908373ffffffffffffffffffffffffffffffffffffffff160217905550606660009054906101000a900473ffffffffffffffffffffffffffffffffffffffff1673ffffffffffffffffffffffffffffffffffffffff167fc67398012c111ce95ecb7429b933096c977380ee6c421175a71a4a4c6c88c06e60405160405180910390a250565b606660009054906101000a900473ffffffffffffffffffffffffffffffffffffffff1681565b6000606f60008473ffffffffffffffffffffffffffffffffffffffff1673ffffffffffffffffffffffffffffffffffffffff16815260200190815260200160002060008373ffffffffffffffffffffffffffffffffffffffff1673ffffffffffffffffffffffffffffffffffffffff16815260200190815260200160002054905092915050565b606b805461264b9061345d565b80601f01602080910402602001604051908101604052809291908181526020018280546126779061345d565b80156126c45780601f10612699576101008083540402835291602001916126c4565b820191906000526020600020905b8154815290600101906020018083116126a757829003601f168201915b505050505081565b6126d4612dd8565b600073ffffffffffffffffffffffffffffffffffffffff168173ffffffffffffffffffffffffffffffffffffffff1603612743576040517f08c379a000000000000000000000000000000000000000000000000000000000815260040161273a90614379565b60405180910390fd5b61274c81612d12565b50565b606660009054906101000a900473ffffffffffffffffffffffffffffffffffffffff1673ffffffffffffffffffffffffffffffffffffffff163373ffffffffffffffffffffffffffffffffffffffff16146127df576040517f08c379a00000000000000000000000000000000000000000000000000000000081526004016127d6906135fe565b60405180910390fd5b6001606760008373ffffffffffffffffffffffffffffffffffffffff1673ffffffffffffffffffffffffffffffffffffffff16815260200190815260200160002060006101000a81548160ff0219169083151502179055508073ffffffffffffffffffffffffffffffffffffffff167fffa4e6181777692565cf28528fc88fd1516ea86b56da075235fa575af6a4b85560405160405180910390a250565b6000606760008373ffffffffffffffffffffffffffffffffffffffff1673ffffffffffffffffffffffffffffffffffffffff16815260200190815260200160002060009054906101000a900460ff169050919050565b600073ffffffffffffffffffffffffffffffffffffffff168373ffffffffffffffffffffffffffffffffffffffff1603612942576040517f08c379a00000000000000000000000000000000000000000000000000000000081526004016129399061440b565b60405180910390fd5b600073ffffffffffffffffffffffffffffffffffffffff168273ffffffffffffffffffffffffffffffffffffffff16036129b1576040517f08c379a00000000000000000000000000000000000000000000000000000000081526004016129a89061449d565b60405180910390fd5b80606f60008573ffffffffffffffffffffffffffffffffffffffff1673ffffffffffffffffffffffffffffffffffffffff16815260200190815260200160002060008473ffffffffffffffffffffffffffffffffffffffff1673ffffffffffffffffffffffffffffffffffffffff168152602001908152602001600020819055508173ffffffffffffffffffffffffffffffffffffffff168373ffffffffffffffffffffffffffffffffffffffff167f8c5be1e5ebec7d5bd14f71427d1e84f3dd0314c0f7b2291e5b200ac8c7c3b92583604051612a8f9190613046565b60405180910390a3505050565b600073ffffffffffffffffffffffffffffffffffffffff168373ffffffffffffffffffffffffffffffffffffffff1603612b0b576040517f08c379a0000000000000000000000000000000000000000000000000000000008152600401612b029061452f565b60405180910390fd5b600073ffffffffffffffffffffffffffffffffffffffff168273ffffffffffffffffffffffffffffffffffffffff1603612b7a576040517f08c379a0000000000000000000000000000000000000000000000000000000008152600401612b71906145c1565b60405180910390fd5b606e60008473ffffffffffffffffffffffffffffffffffffffff1673ffffffffffffffffffffffffffffffffffffffff16815260200190815260200160002054811115612bfc576040517f08c379a0000000000000000000000000000000000000000000000000000000008152600401612bf390614653565b60405180910390fd5b80606e60008573ffffffffffffffffffffffffffffffffffffffff1673ffffffffffffffffffffffffffffffffffffffff1681526020019081526020016000206000828254612c4b91906136df565b9250508190555080606e60008473ffffffffffffffffffffffffffffffffffffffff1673ffffffffffffffffffffffffffffffffffffffff1681526020019081526020016000206000828254612ca19190613cfd565b925050819055508173ffffffffffffffffffffffffffffffffffffffff168373ffffffffffffffffffffffffffffffffffffffff167fddf252ad1be2c89b69c2b068fc378daa952ba7f163c4a11628f55a4df523b3ef83604051612d059190613046565b60405180910390a3505050565b6000603360009054906101000a900473ffffffffffffffffffffffffffffffffffffffff16905081603360006101000a81548173ffffffffffffffffffffffffffffffffffffffff021916908373ffffffffffffffffffffffffffffffffffffffff1602179055508173ffffffffffffffffffffffffffffffffffffffff168173ffffffffffffffffffffffffffffffffffffffff167f8be0079c531659141344cd1fd0a4f28419497f9722a3daafe3b4186f6b6457e060405160405180910390a35050565b612de0612e56565b73ffffffffffffffffffffffffffffffffffffffff16612dfe61202e565b73ffffffffffffffffffffffffffffffffffffffff1614612e54576040517f08c379a0000000000000000000000000000000000000000000000000000000008152600401612e4b906146bf565b60405180910390fd5b565b600033905090565b600081519050919050565b600082825260208201905092915050565b60005b83811015612e98578082015181840152602081019050612e7d565b83811115612ea7576000848401525b50505050565b6000601f19601f8301169050919050565b6000612ec982612e5e565b612ed38185612e69565b9350612ee3818560208601612e7a565b612eec81612ead565b840191505092915050565b60006020820190508181036000830152612f118184612ebe565b905092915050565b6000604051905090565b600080fd5b600080fd5b600073ffffffffffffffffffffffffffffffffffffffff82169050919050565b6000612f5882612f2d565b9050919050565b612f6881612f4d565b8114612f7357600080fd5b50565b600081359050612f8581612f5f565b92915050565b6000819050919050565b612f9e81612f8b565b8114612fa957600080fd5b50565b600081359050612fbb81612f95565b92915050565b60008060408385031215612fd857612fd7612f23565b5b6000612fe685828601612f76565b9250506020612ff785828601612fac565b9150509250929050565b60008115159050919050565b61301681613001565b82525050565b6000602082019050613031600083018461300d565b92915050565b61304081612f8b565b82525050565b600060208201905061305b6000830184613037565b92915050565b60006020828403121561307757613076612f23565b5b600061308584828501612f76565b91505092915050565b6000806000606084860312156130a7576130a6612f23565b5b60006130b586828701612f76565b93505060206130c686828701612f76565b92505060406130d786828701612fac565b9150509250925092565b600080fd5b600080fd5b7f4e487b7100000000000000000000000000000000000000000000000000000000600052604160045260246000fd5b61312382612ead565b810181811067ffffffffffffffff82111715613142576131416130eb565b5b80604052505050565b6000613155612f19565b9050613161828261311a565b919050565b600067ffffffffffffffff821115613181576131806130eb565b5b61318a82612ead565b9050602081019050919050565b82818337600083830152505050565b60006131b96131b484613166565b61314b565b9050828152602081018484840111156131d5576131d46130e6565b5b6131e0848285613197565b509392505050565b600082601f8301126131fd576131fc6130e1565b5b813561320d8482602086016131a6565b91505092915050565b600060ff82169050919050565b61322c81613216565b811461323757600080fd5b50565b60008135905061324981613223565b92915050565b60008060008060008060008060006101208a8c03121561327257613271612f23565b5b60008a013567ffffffffffffffff8111156132905761328f612f28565b5b61329c8c828d016131e8565b99505060208a013567ffffffffffffffff8111156132bd576132bc612f28565b5b6132c98c828d016131e8565b98505060408a013567ffffffffffffffff8111156132ea576132e9612f28565b5b6132f68c828d016131e8565b97505060606133078c828d0161323a565b96505060806133188c828d01612f76565b95505060a06133298c828d01612f76565b94505060c061333a8c828d01612f76565b93505060e061334b8c828d01612f76565b92505061010061335d8c828d01612fac565b9150509295985092959850929598565b61337681613216565b82525050565b6000602082019050613391600083018461336d565b92915050565b6133a081612f4d565b82525050565b60006020820190506133bb6000830184613397565b92915050565b6000602082840312156133d7576133d6612f23565b5b60006133e584828501612fac565b91505092915050565b6000806040838503121561340557613404612f23565b5b600061341385828601612f76565b925050602061342485828601612f76565b9150509250929050565b7f4e487b7100000000000000000000000000000000000000000000000000000000600052602260045260246000fd5b6000600282049050600182168061347557607f821691505b6020821081036134885761348761342e565b5b50919050565b7f5061757361626c653a2070617573656400000000000000000000000000000000600082015250565b60006134c4601083612e69565b91506134cf8261348e565b602082019050919050565b600060208201905081810360008301526134f3816134b7565b9050919050565b7f426c61636b6c69737461626c653a206163636f756e7420697320626c61636b6c60008201527f6973746564000000000000000000000000000000000000000000000000000000602082015250565b6000613556602583612e69565b9150613561826134fa565b604082019050919050565b6000602082019050818103600083015261358581613549565b9050919050565b7f426c61636b6c69737461626c653a2063616c6c6572206973206e6f742074686560008201527f20626c61636b6c69737465720000000000000000000000000000000000000000602082015250565b60006135e8602c83612e69565b91506135f38261358c565b604082019050919050565b60006020820190508181036000830152613617816135db565b9050919050565b7f45524332303a207472616e7366657220616d6f756e742065786365656473206160008201527f6c6c6f77616e6365000000000000000000000000000000000000000000000000602082015250565b600061367a602883612e69565b91506136858261361e565b604082019050919050565b600060208201905081810360008301526136a98161366d565b9050919050565b7f4e487b7100000000000000000000000000000000000000000000000000000000600052601160045260246000fd5b60006136ea82612f8b565b91506136f583612f8b565b925082821015613708576137076136b0565b5b828203905092915050565b7f4d617263546f6b656e3a20636f6e747261637420697320616c7265616479206960008201527f6e697469616c697a656400000000000000000000000000000000000000000000602082015250565b600061376f602a83612e69565b915061377a82613713565b604082019050919050565b6000602082019050818103600083015261379e81613762565b9050919050565b7f4d617263546f6b656e3a206e6577206d61737465724d696e746572206973207460008201527f6865207a65726f20616464726573730000000000000000000000000000000000602082015250565b6000613801602f83612e69565b915061380c826137a5565b604082019050919050565b60006020820190508181036000830152613830816137f4565b9050919050565b7f46696174546f6b656e3a206e65772070617573657220697320746865207a657260008201527f6f20616464726573730000000000000000000000000000000000000000000000602082015250565b6000613893602983612e69565b915061389e82613837565b604082019050919050565b600060208201905081810360008301526138c281613886565b9050919050565b7f46696174546f6b656e3a206e657720626c61636b6c697374657220697320746860008201527f65207a65726f2061646472657373000000000000000000000000000000000000602082015250565b6000613925602e83612e69565b9150613930826138c9565b604082019050919050565b6000602082019050818103600083015261395481613918565b9050919050565b7f46696174546f6b656e3a206e6577206f776e657220697320746865207a65726f60008201527f2061646472657373000000000000000000000000000000000000000000000000602082015250565b60006139b7602883612e69565b91506139c28261395b565b604082019050919050565b600060208201905081810360008301526139e6816139aa565b9050919050565b60008190508160005260206000209050919050565b60006020601f8301049050919050565b600082821b905092915050565b600060088302613a4f7fffffffffffffffffffffffffffffffffffffffffffffffffffffffffffffffff82613a12565b613a598683613a12565b95508019841693508086168417925050509392505050565b6000819050919050565b6000613a96613a91613a8c84612f8b565b613a71565b612f8b565b9050919050565b6000819050919050565b613ab083613a7b565b613ac4613abc82613a9d565b848454613a1f565b825550505050565b600090565b613ad9613acc565b613ae4818484613aa7565b505050565b5b81811015613b0857613afd600082613ad1565b600181019050613aea565b5050565b601f821115613b4d57613b1e816139ed565b613b2784613a02565b81016020851015613b36578190505b613b4a613b4285613a02565b830182613ae9565b50505b505050565b600082821c905092915050565b6000613b7060001984600802613b52565b1980831691505092915050565b6000613b898383613b5f565b9150826002028217905092915050565b613ba282612e5e565b67ffffffffffffffff811115613bbb57613bba6130eb565b5b613bc5825461345d565b613bd0828285613b0c565b600060209050601f831160018114613c035760008415613bf1578287015190505b613bfb8582613b7d565b865550613c63565b601f198416613c11866139ed565b60005b82811015613c3957848901518255600182019150602085019450602081019050613c14565b86831015613c565784890151613c52601f891682613b5f565b8355505b6001600288020188555050505b505050505050565b7f4d617263546f6b656e3a2063616c6c6572206973206e6f7420746865206d617360008201527f7465724d696e7465720000000000000000000000000000000000000000000000602082015250565b6000613cc7602983612e69565b9150613cd282613c6b565b604082019050919050565b60006020820190508181036000830152613cf681613cba565b9050919050565b6000613d0882612f8b565b9150613d1383612f8b565b9250827fffffffffffffffffffffffffffffffffffffffffffffffffffffffffffffffff03821115613d4857613d476136b0565b5b828201905092915050565b7f5061757361626c653a2063616c6c6572206973206e6f7420746865207061757360008201527f6572000000000000000000000000000000000000000000000000000000000000602082015250565b6000613daf602283612e69565b9150613dba82613d53565b604082019050919050565b60006020820190508181036000830152613dde81613da2565b9050919050565b7f4d617263546f6b656e3a2063616c6c6572206973206e6f742061206d696e746560008201527f7200000000000000000000000000000000000000000000000000000000000000602082015250565b6000613e41602183612e69565b9150613e4c82613de5565b604082019050919050565b60006020820190508181036000830152613e7081613e34565b9050919050565b7f4d617263546f6b656e3a2063616e6e6f74206d696e7420746f20746865206e7560008201527f6c6c206164647265737300000000000000000000000000000000000000000000602082015250565b6000613ed3602a83612e69565b9150613ede82613e77565b604082019050919050565b60006020820190508181036000830152613f0281613ec6565b9050919050565b7f4d617263546f6b656e3a206d696e7420616d6f756e74206973206e6f7420677260008201527f6561746572207468616e20300000000000000000000000000000000000000000602082015250565b6000613f65602c83612e69565b9150613f7082613f09565b604082019050919050565b60006020820190508181036000830152613f9481613f58565b9050919050565b7f4d617263546f6b656e3a206d696e7420616d6f756e742065786365656473206d60008201527f696e746572416c6c6f77616e6365000000000000000000000000000000000000602082015250565b6000613ff7602e83612e69565b915061400282613f9b565b604082019050919050565b6000602082019050818103600083015261402681613fea565b9050919050565b7f4d617263546f6b656e3a206275726e20616d6f756e74206e6f7420677265617460008201527f6572207468616e20300000000000000000000000000000000000000000000000602082015250565b6000614089602983612e69565b91506140948261402d565b604082019050919050565b600060208201905081810360008301526140b88161407c565b9050919050565b7f4d617263546f6b656e3a206275726e20616d6f756e742065786365656473206260008201527f616c616e63650000000000000000000000000000000000000000000000000000602082015250565b600061411b602683612e69565b9150614126826140bf565b604082019050919050565b6000602082019050818103600083015261414a8161410e565b9050919050565b7f5061757361626c653a206e65772070617573657220697320746865207a65726f60008201527f2061646472657373000000000000000000000000000000000000000000000000602082015250565b60006141ad602883612e69565b91506141b882614151565b604082019050919050565b600060208201905081810360008301526141dc816141a0565b9050919050565b7f45524332303a2064656372656173656420616c6c6f77616e63652062656c6f7760008201527f207a65726f000000000000000000000000000000000000000000000000000000602082015250565b600061423f602583612e69565b915061424a826141e3565b604082019050919050565b6000602082019050818103600083015261426e81614232565b9050919050565b7f426c61636b6c69737461626c653a206e657720626c61636b6c6973746572206960008201527f7320746865207a65726f20616464726573730000000000000000000000000000602082015250565b60006142d1603283612e69565b91506142dc82614275565b604082019050919050565b60006020820190508181036000830152614300816142c4565b9050919050565b7f4f776e61626c653a206e6577206f776e657220697320746865207a65726f206160008201527f6464726573730000000000000000000000000000000000000000000000000000602082015250565b6000614363602683612e69565b915061436e82614307565b604082019050919050565b6000602082019050818103600083015261439281614356565b9050919050565b7f45524332303a20617070726f76652066726f6d20746865207a65726f2061646460008201527f7265737300000000000000000000000000000000000000000000000000000000602082015250565b60006143f5602483612e69565b915061440082614399565b604082019050919050565b60006020820190508181036000830152614424816143e8565b9050919050565b7f45524332303a20617070726f766520746f20746865207a65726f20616464726560008201527f7373000000000000000000000000000000000000000000000000000000000000602082015250565b6000614487602283612e69565b91506144928261442b565b604082019050919050565b600060208201905081810360008301526144b68161447a565b9050919050565b7f45524332303a207472616e736665722066726f6d20746865207a65726f20616460008201527f6472657373000000000000000000000000000000000000000000000000000000602082015250565b6000614519602583612e69565b9150614524826144bd565b604082019050919050565b600060208201905081810360008301526145488161450c565b9050919050565b7f45524332303a207472616e7366657220746f20746865207a65726f206164647260008201527f6573730000000000000000000000000000000000000000000000000000000000602082015250565b60006145ab602383612e69565b91506145b68261454f565b604082019050919050565b600060208201905081810360008301526145da8161459e565b9050919050565b7f45524332303a207472616e7366657220616d6f756e742065786365656473206260008201527f616c616e63650000000000000000000000000000000000000000000000000000602082015250565b600061463d602683612e69565b9150614648826145e1565b604082019050919050565b6000602082019050818103600083015261466c81614630565b9050919050565b7f4f776e61626c653a2063616c6c6572206973206e6f7420746865206f776e6572600082015250565b60006146a9602083612e69565b91506146b482614673565b602082019050919050565b600060208201905081810360008301526146d88161469c565b905091905056fea2646970667358221220754cdbd3a2dc5615c6cce0194d5e338694183b693b67240f914b5ee4ff8050ad64736f6c634300080f0033",
  "linkReferences": {},
  "deployedLinkReferences": {}
}